{
    "_format": "hh-sol-artifact-1",
    "contractName": "Domains",
    "sourceName": "contracts/Domain.sol",
    "abi": [
        {
            "inputs": [
                {
                    "internalType": "string",
                    "name": "_tld",
                    "type": "string"
                }
            ],
            "stateMutability": "payable",
            "type": "constructor"
        },
        {
            "inputs": [],
            "name": "AlreadyRegistered",
            "type": "error"
        },
        {
            "inputs": [
                {
                    "internalType": "string",
                    "name": "name",
                    "type": "string"
                }
            ],
            "name": "InvalidName",
            "type": "error"
        },
        {
            "inputs": [],
            "name": "Unauthorized",
            "type": "error"
        },
        {
            "anonymous": false,
            "inputs": [
                {
                    "indexed": true,
                    "internalType": "address",
                    "name": "owner",
                    "type": "address"
                },
                {
                    "indexed": true,
                    "internalType": "address",
                    "name": "approved",
                    "type": "address"
                },
                {
                    "indexed": true,
                    "internalType": "uint256",
                    "name": "tokenId",
                    "type": "uint256"
                }
            ],
            "name": "Approval",
            "type": "event"
        },
        {
            "anonymous": false,
            "inputs": [
                {
                    "indexed": true,
                    "internalType": "address",
                    "name": "owner",
                    "type": "address"
                },
                {
                    "indexed": true,
                    "internalType": "address",
                    "name": "operator",
                    "type": "address"
                },
                {
                    "indexed": false,
                    "internalType": "bool",
                    "name": "approved",
                    "type": "bool"
                }
            ],
            "name": "ApprovalForAll",
            "type": "event"
        },
        {
            "anonymous": false,
            "inputs": [
                {
                    "indexed": true,
                    "internalType": "address",
                    "name": "from",
                    "type": "address"
                },
                {
                    "indexed": true,
                    "internalType": "address",
                    "name": "to",
                    "type": "address"
                },
                {
                    "indexed": true,
                    "internalType": "uint256",
                    "name": "tokenId",
                    "type": "uint256"
                }
            ],
            "name": "Transfer",
            "type": "event"
        },
        {
            "inputs": [
                {
                    "internalType": "address",
                    "name": "to",
                    "type": "address"
                },
                {
                    "internalType": "uint256",
                    "name": "tokenId",
                    "type": "uint256"
                }
            ],
            "name": "approve",
            "outputs": [],
            "stateMutability": "nonpayable",
            "type": "function"
        },
        {
            "inputs": [
                {
                    "internalType": "address",
                    "name": "owner",
                    "type": "address"
                }
            ],
            "name": "balanceOf",
            "outputs": [
                {
                    "internalType": "uint256",
                    "name": "",
                    "type": "uint256"
                }
            ],
            "stateMutability": "view",
            "type": "function"
        },
        {
            "inputs": [
                {
                    "internalType": "string",
                    "name": "",
                    "type": "string"
                }
            ],
            "name": "domains",
            "outputs": [
                {
                    "internalType": "address",
                    "name": "",
                    "type": "address"
                }
            ],
            "stateMutability": "view",
            "type": "function"
        },
        {
            "inputs": [
                {
                    "internalType": "string",
                    "name": "name",
                    "type": "string"
                }
            ],
            "name": "getAddress",
            "outputs": [
                {
                    "internalType": "address",
                    "name": "",
                    "type": "address"
                }
            ],
            "stateMutability": "view",
            "type": "function"
        },
        {
            "inputs": [],
            "name": "getAllNames",
            "outputs": [
                {
                    "internalType": "string[]",
                    "name": "",
                    "type": "string[]"
                }
            ],
            "stateMutability": "view",
            "type": "function"
        },
        {
            "inputs": [
                {
                    "internalType": "uint256",
                    "name": "tokenId",
                    "type": "uint256"
                }
            ],
            "name": "getApproved",
            "outputs": [
                {
                    "internalType": "address",
                    "name": "",
                    "type": "address"
                }
            ],
            "stateMutability": "view",
            "type": "function"
        },
        {
            "inputs": [],
            "name": "getCounter",
            "outputs": [
                {
                    "internalType": "uint256",
                    "name": "",
                    "type": "uint256"
                }
            ],
            "stateMutability": "view",
            "type": "function"
        },
        {
            "inputs": [
                {
                    "internalType": "string",
                    "name": "name",
                    "type": "string"
                }
            ],
            "name": "getRecord",
            "outputs": [
                {
                    "internalType": "string",
                    "name": "",
                    "type": "string"
                }
            ],
            "stateMutability": "view",
            "type": "function"
        },
        {
            "inputs": [
                {
                    "internalType": "address",
                    "name": "owner",
                    "type": "address"
                },
                {
                    "internalType": "address",
                    "name": "operator",
                    "type": "address"
                }
            ],
            "name": "isApprovedForAll",
            "outputs": [
                {
                    "internalType": "bool",
                    "name": "",
                    "type": "bool"
                }
            ],
            "stateMutability": "view",
            "type": "function"
        },
        {
            "inputs": [],
            "name": "isOwner",
            "outputs": [
                {
                    "internalType": "bool",
                    "name": "",
                    "type": "bool"
                }
            ],
            "stateMutability": "view",
            "type": "function"
        },
        {
            "inputs": [],
            "name": "name",
            "outputs": [
                {
                    "internalType": "string",
                    "name": "",
                    "type": "string"
                }
            ],
            "stateMutability": "view",
            "type": "function"
        },
        {
            "inputs": [
                {
                    "internalType": "uint256",
                    "name": "",
                    "type": "uint256"
                }
            ],
            "name": "names",
            "outputs": [
                {
                    "internalType": "string",
                    "name": "",
                    "type": "string"
                }
            ],
            "stateMutability": "view",
            "type": "function"
        },
        {
            "inputs": [],
            "name": "owner",
            "outputs": [
                {
                    "internalType": "address payable",
                    "name": "",
                    "type": "address"
                }
            ],
            "stateMutability": "view",
            "type": "function"
        },
        {
            "inputs": [
                {
                    "internalType": "uint256",
                    "name": "tokenId",
                    "type": "uint256"
                }
            ],
            "name": "ownerOf",
            "outputs": [
                {
                    "internalType": "address",
                    "name": "",
                    "type": "address"
                }
            ],
            "stateMutability": "view",
            "type": "function"
        },
        {
            "inputs": [
                {
                    "internalType": "string",
                    "name": "name",
                    "type": "string"
                }
            ],
            "name": "price",
            "outputs": [
                {
                    "internalType": "uint256",
                    "name": "",
                    "type": "uint256"
                }
            ],
            "stateMutability": "pure",
            "type": "function"
        },
        {
            "inputs": [
                {
                    "internalType": "string",
                    "name": "",
                    "type": "string"
                }
            ],
            "name": "records",
            "outputs": [
                {
                    "internalType": "string",
                    "name": "",
                    "type": "string"
                }
            ],
            "stateMutability": "view",
            "type": "function"
        },
        {
            "inputs": [
                {
                    "internalType": "string",
                    "name": "name",
                    "type": "string"
                }
            ],
            "name": "register",
            "outputs": [],
            "stateMutability": "payable",
            "type": "function"
        },
        {
            "inputs": [
                {
                    "internalType": "address",
                    "name": "from",
                    "type": "address"
                },
                {
                    "internalType": "address",
                    "name": "to",
                    "type": "address"
                },
                {
                    "internalType": "uint256",
                    "name": "tokenId",
                    "type": "uint256"
                }
            ],
            "name": "safeTransferFrom",
            "outputs": [],
            "stateMutability": "nonpayable",
            "type": "function"
        },
        {
            "inputs": [
                {
                    "internalType": "address",
                    "name": "from",
                    "type": "address"
                },
                {
                    "internalType": "address",
                    "name": "to",
                    "type": "address"
                },
                {
                    "internalType": "uint256",
                    "name": "tokenId",
                    "type": "uint256"
                },
                {
                    "internalType": "bytes",
                    "name": "_data",
                    "type": "bytes"
                }
            ],
            "name": "safeTransferFrom",
            "outputs": [],
            "stateMutability": "nonpayable",
            "type": "function"
        },
        {
            "inputs": [
                {
                    "internalType": "address",
                    "name": "operator",
                    "type": "address"
                },
                {
                    "internalType": "bool",
                    "name": "approved",
                    "type": "bool"
                }
            ],
            "name": "setApprovalForAll",
            "outputs": [],
            "stateMutability": "nonpayable",
            "type": "function"
        },
        {
            "inputs": [
                {
                    "internalType": "string",
                    "name": "name",
                    "type": "string"
                },
                {
                    "internalType": "string",
                    "name": "record",
                    "type": "string"
                }
            ],
            "name": "setRecord",
            "outputs": [],
            "stateMutability": "nonpayable",
            "type": "function"
        },
        {
            "inputs": [
                {
                    "internalType": "bytes4",
                    "name": "interfaceId",
                    "type": "bytes4"
                }
            ],
            "name": "supportsInterface",
            "outputs": [
                {
                    "internalType": "bool",
                    "name": "",
                    "type": "bool"
                }
            ],
            "stateMutability": "view",
            "type": "function"
        },
        {
            "inputs": [],
            "name": "symbol",
            "outputs": [
                {
                    "internalType": "string",
                    "name": "",
                    "type": "string"
                }
            ],
            "stateMutability": "view",
            "type": "function"
        },
        {
            "inputs": [],
            "name": "tld",
            "outputs": [
                {
                    "internalType": "string",
                    "name": "",
                    "type": "string"
                }
            ],
            "stateMutability": "view",
            "type": "function"
        },
        {
            "inputs": [
                {
                    "internalType": "uint256",
                    "name": "tokenId",
                    "type": "uint256"
                }
            ],
            "name": "tokenURI",
            "outputs": [
                {
                    "internalType": "string",
                    "name": "",
                    "type": "string"
                }
            ],
            "stateMutability": "view",
            "type": "function"
        },
        {
            "inputs": [
                {
                    "internalType": "address",
                    "name": "from",
                    "type": "address"
                },
                {
                    "internalType": "address",
                    "name": "to",
                    "type": "address"
                },
                {
                    "internalType": "uint256",
                    "name": "tokenId",
                    "type": "uint256"
                }
            ],
            "name": "transferFrom",
            "outputs": [],
            "stateMutability": "nonpayable",
            "type": "function"
        },
        {
            "inputs": [
                {
                    "internalType": "string",
                    "name": "name",
                    "type": "string"
                }
            ],
            "name": "valid",
            "outputs": [
                {
                    "internalType": "bool",
                    "name": "",
                    "type": "bool"
                }
            ],
            "stateMutability": "pure",
            "type": "function"
        },
        {
            "inputs": [],
            "name": "withdraw",
            "outputs": [],
            "stateMutability": "nonpayable",
            "type": "function"
        }
    ],
    "bytecode": "0x6080604052604051806108a00160405280610879815260200162004e3b6108799139600a908051906020019062000038929190620001ad565b506040518060400160405280600d81526020017f3c2f746578743e3c2f7376673e00000000000000000000000000000000000000815250600b908051906020019062000086929190620001ad565b50604051620056b4380380620056b48339818101604052810190620000ac9190620003fa565b6040518060400160405280601181526020017f44616d6e204e616d6520536572766963650000000000000000000000000000008152506040518060400160405280600381526020017f444e530000000000000000000000000000000000000000000000000000000000815250816000908051906020019062000130929190620001ad565b50806001908051906020019062000149929190620001ad565b50505033600760006101000a81548173ffffffffffffffffffffffffffffffffffffffff021916908373ffffffffffffffffffffffffffffffffffffffff1602179055508060099080519060200190620001a5929190620001ad565b5050620004b0565b828054620001bb906200047a565b90600052602060002090601f016020900481019282620001df57600085556200022b565b82601f10620001fa57805160ff19168380011785556200022b565b828001600101855582156200022b579182015b828111156200022a5782518255916020019190600101906200020d565b5b5090506200023a91906200023e565b5090565b5b80821115620002595760008160009055506001016200023f565b5090565b6000604051905090565b600080fd5b600080fd5b600080fd5b600080fd5b6000601f19601f8301169050919050565b7f4e487b7100000000000000000000000000000000000000000000000000000000600052604160045260246000fd5b620002c6826200027b565b810181811067ffffffffffffffff82111715620002e857620002e76200028c565b5b80604052505050565b6000620002fd6200025d565b90506200030b8282620002bb565b919050565b600067ffffffffffffffff8211156200032e576200032d6200028c565b5b62000339826200027b565b9050602081019050919050565b60005b838110156200036657808201518184015260208101905062000349565b8381111562000376576000848401525b50505050565b6000620003936200038d8462000310565b620002f1565b905082815260208101848484011115620003b257620003b162000276565b5b620003bf84828562000346565b509392505050565b600082601f830112620003df57620003de62000271565b5b8151620003f18482602086016200037c565b91505092915050565b60006020828403121562000413576200041262000267565b5b600082015167ffffffffffffffff8111156200043457620004336200026c565b5b6200044284828501620003c7565b91505092915050565b7f4e487b7100000000000000000000000000000000000000000000000000000000600052602260045260246000fd5b600060028204905060018216806200049357607f821691505b60208210811415620004aa57620004a96200044b565b5b50919050565b61497b80620004c06000396000f3fe6080604052600436106101b75760003560e01c80638ada066e116100ec578063bf40fac11161008a578063e985e9c511610064578063e985e9c51461066a578063f2c298be146106a7578063fb825e5f146106c3578063fe2c6198146106ee576101b7565b8063bf40fac1146105c7578063c1880a9814610604578063c87b56dd1461062d576101b7565b806395d89b41116100c657806395d89b411461050d5780639791c09714610538578063a22cb46514610575578063b88d4fde1461059e576101b7565b80638ada066e1461048c5780638da5cb5b146104b75780638f32d59b146104e2576101b7565b80632d551432116101595780634622ab03116101335780634622ab0314610398578063541e771d146103d55780636352211e1461041257806370a082311461044f576101b7565b80632d5514321461032d5780633ccfd60b1461035857806342842e0e1461036f576101b7565b8063095ea7b311610195578063095ea7b31461026157806311dd88451461028a57806323b872dd146102c757806326449235146102f0576101b7565b806301ffc9a7146101bc57806306fdde03146101f9578063081812fc14610224575b600080fd5b3480156101c857600080fd5b506101e360048036038101906101de9190612dfd565b61072b565b6040516101f09190612e45565b60405180910390f35b34801561020557600080fd5b5061020e61080d565b60405161021b9190612ef9565b60405180910390f35b34801561023057600080fd5b5061024b60048036038101906102469190612f51565b61089f565b6040516102589190612fbf565b60405180910390f35b34801561026d57600080fd5b5061028860048036038101906102839190613006565b610924565b005b34801561029657600080fd5b506102b160048036038101906102ac91906130ab565b610a3c565b6040516102be9190612ef9565b60405180910390f35b3480156102d357600080fd5b506102ee60048036038101906102e991906130f8565b610aef565b005b3480156102fc57600080fd5b506103176004803603810190610312919061327b565b610b4f565b6040516103249190612fbf565b60405180910390f35b34801561033957600080fd5b50610342610b98565b60405161034f9190612ef9565b60405180910390f35b34801561036457600080fd5b5061036d610c26565b005b34801561037b57600080fd5b50610396600480360381019061039191906130f8565b610cec565b005b3480156103a457600080fd5b506103bf60048036038101906103ba9190612f51565b610d0c565b6040516103cc9190612ef9565b60405180910390f35b3480156103e157600080fd5b506103fc60048036038101906103f7919061327b565b610dac565b6040516104099190612ef9565b60405180910390f35b34801561041e57600080fd5b5061043960048036038101906104349190612f51565b610e62565b6040516104469190612fbf565b60405180910390f35b34801561045b57600080fd5b50610476600480360381019061047191906132c4565b610f14565b6040516104839190613300565b60405180910390f35b34801561049857600080fd5b506104a1610fcc565b6040516104ae9190613300565b60405180910390f35b3480156104c357600080fd5b506104cc610fdd565b6040516104d9919061333c565b60405180910390f35b3480156104ee57600080fd5b506104f7611003565b6040516105049190612e45565b60405180910390f35b34801561051957600080fd5b5061052261105b565b60405161052f9190612ef9565b60405180910390f35b34801561054457600080fd5b5061055f600480360381019061055a91906130ab565b6110ed565b60405161056c9190612e45565b60405180910390f35b34801561058157600080fd5b5061059c60048036038101906105979190613383565b6111a1565b005b3480156105aa57600080fd5b506105c560048036038101906105c09190613464565b6111b7565b005b3480156105d357600080fd5b506105ee60048036038101906105e991906130ab565b611219565b6040516105fb9190612fbf565b60405180910390f35b34801561061057600080fd5b5061062b600480360381019061062691906134e7565b611264565b005b34801561063957600080fd5b50610654600480360381019061064f9190612f51565b61133f565b6040516106619190612ef9565b60405180910390f35b34801561067657600080fd5b50610691600480360381019061068c9190613568565b611491565b60405161069e9190612e45565b60405180910390f35b6106c160048036038101906106bc91906130ab565b611525565b005b3480156106cf57600080fd5b506106d8611922565b6040516106e591906136b4565b60405180910390f35b3480156106fa57600080fd5b50610715600480360381019061071091906130ab565b611a68565b6040516107229190613300565b60405180910390f35b60007f80ac58cd000000000000000000000000000000000000000000000000000000007bffffffffffffffffffffffffffffffffffffffffffffffffffffffff1916827bffffffffffffffffffffffffffffffffffffffffffffffffffffffff191614806107f657507f5b5e139f000000000000000000000000000000000000000000000000000000007bffffffffffffffffffffffffffffffffffffffffffffffffffffffff1916827bffffffffffffffffffffffffffffffffffffffffffffffffffffffff1916145b80610806575061080582611b0b565b5b9050919050565b60606000805461081c90613705565b80601f016020809104026020016040519081016040528092919081815260200182805461084890613705565b80156108955780601f1061086a57610100808354040283529160200191610895565b820191906000526020600020905b81548152906001019060200180831161087857829003601f168201915b5050505050905090565b60006108aa82611b75565b6108e9576040517f08c379a00000000000000000000000000000000000000000000000000000000081526004016108e0906137a9565b60405180910390fd5b6004600083815260200190815260200160002060009054906101000a900473ffffffffffffffffffffffffffffffffffffffff169050919050565b600061092f82610e62565b90508073ffffffffffffffffffffffffffffffffffffffff168373ffffffffffffffffffffffffffffffffffffffff1614156109a0576040517f08c379a00000000000000000000000000000000000000000000000000000000081526004016109979061383b565b60405180910390fd5b8073ffffffffffffffffffffffffffffffffffffffff166109bf611be1565b73ffffffffffffffffffffffffffffffffffffffff1614806109ee57506109ed816109e8611be1565b611491565b5b610a2d576040517f08c379a0000000000000000000000000000000000000000000000000000000008152600401610a24906138cd565b60405180910390fd5b610a378383611be9565b505050565b6060600d8383604051610a5092919061391d565b90815260200160405180910390208054610a6990613705565b80601f0160208091040260200160405190810160405280929190818152602001828054610a9590613705565b8015610ae25780601f10610ab757610100808354040283529160200191610ae2565b820191906000526020600020905b815481529060010190602001808311610ac557829003601f168201915b5050505050905092915050565b610b00610afa611be1565b82611ca2565b610b3f576040517f08c379a0000000000000000000000000000000000000000000000000000000008152600401610b36906139a8565b60405180910390fd5b610b4a838383611d80565b505050565b600c818051602081018201805184825260208301602085012081835280955050505050506000915054906101000a900473ffffffffffffffffffffffffffffffffffffffff1681565b60098054610ba590613705565b80601f0160208091040260200160405190810160405280929190818152602001828054610bd190613705565b8015610c1e5780601f10610bf357610100808354040283529160200191610c1e565b820191906000526020600020905b815481529060010190602001808311610c0157829003601f168201915b505050505081565b610c2e611003565b610c3757600080fd5b600047905060003373ffffffffffffffffffffffffffffffffffffffff1682604051610c62906139f9565b60006040518083038185875af1925050503d8060008114610c9f576040519150601f19603f3d011682016040523d82523d6000602084013e610ca4565b606091505b5050905080610ce8576040517f08c379a0000000000000000000000000000000000000000000000000000000008152600401610cdf90613a5a565b60405180910390fd5b5050565b610d07838383604051806020016040528060008152506111b7565b505050565b600e6020528060005260406000206000915090508054610d2b90613705565b80601f0160208091040260200160405190810160405280929190818152602001828054610d5790613705565b8015610da45780601f10610d7957610100808354040283529160200191610da4565b820191906000526020600020905b815481529060010190602001808311610d8757829003601f168201915b505050505081565b600d818051602081018201805184825260208301602085012081835280955050505050506000915090508054610de190613705565b80601f0160208091040260200160405190810160405280929190818152602001828054610e0d90613705565b8015610e5a5780601f10610e2f57610100808354040283529160200191610e5a565b820191906000526020600020905b815481529060010190602001808311610e3d57829003601f168201915b505050505081565b6000806002600084815260200190815260200160002060009054906101000a900473ffffffffffffffffffffffffffffffffffffffff169050600073ffffffffffffffffffffffffffffffffffffffff168173ffffffffffffffffffffffffffffffffffffffff161415610f0b576040517f08c379a0000000000000000000000000000000000000000000000000000000008152600401610f0290613aec565b60405180910390fd5b80915050919050565b60008073ffffffffffffffffffffffffffffffffffffffff168273ffffffffffffffffffffffffffffffffffffffff161415610f85576040517f08c379a0000000000000000000000000000000000000000000000000000000008152600401610f7c90613b7e565b60405180910390fd5b600360008373ffffffffffffffffffffffffffffffffffffffff1673ffffffffffffffffffffffffffffffffffffffff168152602001908152602001600020549050919050565b6000610fd86008611fe7565b905090565b600760009054906101000a900473ffffffffffffffffffffffffffffffffffffffff1681565b6000600760009054906101000a900473ffffffffffffffffffffffffffffffffffffffff1673ffffffffffffffffffffffffffffffffffffffff163373ffffffffffffffffffffffffffffffffffffffff1614905090565b60606001805461106a90613705565b80601f016020809104026020016040519081016040528092919081815260200182805461109690613705565b80156110e35780601f106110b8576101008083540402835291602001916110e3565b820191906000526020600020905b8154815290600101906020018083116110c657829003601f168201915b5050505050905090565b6000600361113e84848080601f016020809104026020016040519081016040528093929190818152602001838380828437600081840152601f19601f82011690508083019250505050505050611ff5565b101580156111995750600a61119684848080601f016020809104026020016040519081016040528093929190818152602001838380828437600081840152601f19601f82011690508083019250505050505050611ff5565b11155b905092915050565b6111b36111ac611be1565b83836121aa565b5050565b6111c86111c2611be1565b83611ca2565b611207576040517f08c379a00000000000000000000000000000000000000000000000000000000081526004016111fe906139a8565b60405180910390fd5b61121384848484612317565b50505050565b6000600c838360405161122d92919061391d565b908152602001604051809103902060009054906101000a900473ffffffffffffffffffffffffffffffffffffffff16905092915050565b600c848460405161127692919061391d565b908152602001604051809103902060009054906101000a900473ffffffffffffffffffffffffffffffffffffffff1673ffffffffffffffffffffffffffffffffffffffff163373ffffffffffffffffffffffffffffffffffffffff1614611309576040517f82b4290000000000000000000000000000000000000000000000000000000000815260040160405180910390fd5b8181600d868660405161131d92919061391d565b90815260200160405180910390209190611338929190612c68565b5050505050565b606061134a82611b75565b611389576040517f08c379a000000000000000000000000000000000000000000000000000000000815260040161138090613c10565b60405180910390fd5b60006006600084815260200190815260200160002080546113a990613705565b80601f01602080910402602001604051908101604052809291908181526020018280546113d590613705565b80156114225780601f106113f757610100808354040283529160200191611422565b820191906000526020600020905b81548152906001019060200180831161140557829003601f168201915b505050505090506000611433612373565b905060008151141561144957819250505061148c565b60008251111561147e578082604051602001611466929190613c61565b6040516020818303038152906040529250505061148c565b6114878461238a565b925050505b919050565b6000600560008473ffffffffffffffffffffffffffffffffffffffff1673ffffffffffffffffffffffffffffffffffffffff16815260200190815260200160002060008373ffffffffffffffffffffffffffffffffffffffff1673ffffffffffffffffffffffffffffffffffffffff16815260200190815260200160002060009054906101000a900460ff16905092915050565b600073ffffffffffffffffffffffffffffffffffffffff16600c838360405161154f92919061391d565b908152602001604051809103902060009054906101000a900473ffffffffffffffffffffffffffffffffffffffff1673ffffffffffffffffffffffffffffffffffffffff16146115cb576040517f3a81d6fc00000000000000000000000000000000000000000000000000000000815260040160405180910390fd5b6115d582826110ed565b6116185781816040517f7f19f48d00000000000000000000000000000000000000000000000000000000815260040161160f929190613cb2565b60405180910390fd5b60006116248383611a68565b905080341015611669576040517f08c379a000000000000000000000000000000000000000000000000000000000815260040161166090613d22565b60405180910390fd5b60008383600960405160200161168193929190613e22565b60405160208183030381529060405290506000600a82600b6040516020016116ab93929190613e53565b604051602081830303815290604052905060006116c86008611fe7565b9050600061171987878080601f016020809104026020016040519081016040528093929190818152602001838380828437600081840152601f19601f82011690508083019250505050505050611ff5565b9050600061172682612431565b905061181a6040518060600160405280603181526020016148d56031913989898080601f016020809104026020016040519081016040528093929190818152602001838380828437600081840152601f19601f820116905080830192505050505050506009805461179690613705565b80601f01602080910402602001604051908101604052809291908181526020018280546117c290613705565b801561180f5780601f106117e45761010080835404028352916020019161180f565b820191906000526020600020905b8154815290600101906020018083116117f257829003601f168201915b505050505086612592565b60006118508661182987612634565b8460405160200161183c93929190614000565b604051602081830303815290604052612634565b905060008160405160200161186591906140a9565b604051602081830303815290604052905061188033866127ad565b61188a85826127cb565b33600c8b8b60405161189d92919061391d565b908152602001604051809103902060006101000a81548173ffffffffffffffffffffffffffffffffffffffff021916908373ffffffffffffffffffffffffffffffffffffffff1602179055508989600e6000888152602001908152602001600020919061190b929190612c68565b50611916600861283f565b50505050505050505050565b606060006119306008611fe7565b67ffffffffffffffff81111561194957611948613150565b5b60405190808252806020026020018201604052801561197c57816020015b60608152602001906001900390816119675790505b50905060005b61198c6008611fe7565b811015611a6057600e600082815260200190815260200160002080546119b190613705565b80601f01602080910402602001604051908101604052809291908181526020018280546119dd90613705565b8015611a2a5780601f106119ff57610100808354040283529160200191611a2a565b820191906000526020600020905b815481529060010190602001808311611a0d57829003601f168201915b5050505050828281518110611a4257611a416140cb565b5b60200260200101819052508080611a5890614129565b915050611982565b508091505090565b600080611ab884848080601f016020809104026020016040519081016040528093929190818152602001838380828437600081840152601f19601f82011690508083019250505050505050611ff5565b905060008111611ac757600080fd5b6003811415611ae05766b1a2bc2ec50000915050611b05565b6004811415611af957666a94d74f430000915050611b05565b662386f26fc100009150505b92915050565b60007f01ffc9a7000000000000000000000000000000000000000000000000000000007bffffffffffffffffffffffffffffffffffffffffffffffffffffffff1916827bffffffffffffffffffffffffffffffffffffffffffffffffffffffff1916149050919050565b60008073ffffffffffffffffffffffffffffffffffffffff166002600084815260200190815260200160002060009054906101000a900473ffffffffffffffffffffffffffffffffffffffff1673ffffffffffffffffffffffffffffffffffffffff1614159050919050565b600033905090565b816004600083815260200190815260200160002060006101000a81548173ffffffffffffffffffffffffffffffffffffffff021916908373ffffffffffffffffffffffffffffffffffffffff160217905550808273ffffffffffffffffffffffffffffffffffffffff16611c5c83610e62565b73ffffffffffffffffffffffffffffffffffffffff167f8c5be1e5ebec7d5bd14f71427d1e84f3dd0314c0f7b2291e5b200ac8c7c3b92560405160405180910390a45050565b6000611cad82611b75565b611cec576040517f08c379a0000000000000000000000000000000000000000000000000000000008152600401611ce3906141e4565b60405180910390fd5b6000611cf783610e62565b90508073ffffffffffffffffffffffffffffffffffffffff168473ffffffffffffffffffffffffffffffffffffffff161480611d395750611d388185611491565b5b80611d7757508373ffffffffffffffffffffffffffffffffffffffff16611d5f8461089f565b73ffffffffffffffffffffffffffffffffffffffff16145b91505092915050565b8273ffffffffffffffffffffffffffffffffffffffff16611da082610e62565b73ffffffffffffffffffffffffffffffffffffffff1614611df6576040517f08c379a0000000000000000000000000000000000000000000000000000000008152600401611ded90614276565b60405180910390fd5b600073ffffffffffffffffffffffffffffffffffffffff168273ffffffffffffffffffffffffffffffffffffffff161415611e66576040517f08c379a0000000000000000000000000000000000000000000000000000000008152600401611e5d90614308565b60405180910390fd5b611e71838383612855565b611e7c600082611be9565b6001600360008573ffffffffffffffffffffffffffffffffffffffff1673ffffffffffffffffffffffffffffffffffffffff1681526020019081526020016000206000828254611ecc9190614328565b925050819055506001600360008473ffffffffffffffffffffffffffffffffffffffff1673ffffffffffffffffffffffffffffffffffffffff1681526020019081526020016000206000828254611f23919061435c565b92505081905550816002600083815260200190815260200160002060006101000a81548173ffffffffffffffffffffffffffffffffffffffff021916908373ffffffffffffffffffffffffffffffffffffffff160217905550808273ffffffffffffffffffffffffffffffffffffffff168473ffffffffffffffffffffffffffffffffffffffff167fddf252ad1be2c89b69c2b068fc378daa952ba7f163c4a11628f55a4df523b3ef60405160405180910390a4611fe283838361285a565b505050565b600081600001549050919050565b60008060008084519050600092505b8082101561219f576000858381518110612021576120206140cb565b5b602001015160f81c60f81b9050608060f81b817effffffffffffffffffffffffffffffffffffffffffffffffffffffffffffff1916101561207057600183612069919061435c565b925061218b565b60e060f81b817effffffffffffffffffffffffffffffffffffffffffffffffffffffffffffff191610156120b2576002836120ab919061435c565b925061218a565b60f060f81b817effffffffffffffffffffffffffffffffffffffffffffffffffffffffffffff191610156120f4576003836120ed919061435c565b9250612189565b60f8801b817effffffffffffffffffffffffffffffffffffffffffffffffffffffffffffff191610156121355760048361212e919061435c565b9250612188565b60fc60f81b817effffffffffffffffffffffffffffffffffffffffffffffffffffffffffffff1916101561217757600583612170919061435c565b9250612187565b600683612184919061435c565b92505b5b5b5b5b50828061219790614129565b935050612004565b829350505050919050565b8173ffffffffffffffffffffffffffffffffffffffff168373ffffffffffffffffffffffffffffffffffffffff161415612219576040517f08c379a0000000000000000000000000000000000000000000000000000000008152600401612210906143fe565b60405180910390fd5b80600560008573ffffffffffffffffffffffffffffffffffffffff1673ffffffffffffffffffffffffffffffffffffffff16815260200190815260200160002060008473ffffffffffffffffffffffffffffffffffffffff1673ffffffffffffffffffffffffffffffffffffffff16815260200190815260200160002060006101000a81548160ff0219169083151502179055508173ffffffffffffffffffffffffffffffffffffffff168373ffffffffffffffffffffffffffffffffffffffff167f17307eab39ab6107e8899845ad3d59bd9653f200f220920489ca2b5937696c318360405161230a9190612e45565b60405180910390a3505050565b612322848484611d80565b61232e8484848461285f565b61236d576040517f08c379a000000000000000000000000000000000000000000000000000000000815260040161236490614490565b60405180910390fd5b50505050565b606060405180602001604052806000815250905090565b606061239582611b75565b6123d4576040517f08c379a00000000000000000000000000000000000000000000000000000000081526004016123cb90614522565b60405180910390fd5b60006123de612373565b905060008151116123fe5760405180602001604052806000815250612429565b8061240884612431565b604051602001612419929190613c61565b6040516020818303038152906040525b915050919050565b60606000821415612479576040518060400160405280600181526020017f3000000000000000000000000000000000000000000000000000000000000000815250905061258d565b600082905060005b600082146124ab57808061249490614129565b915050600a826124a49190614571565b9150612481565b60008167ffffffffffffffff8111156124c7576124c6613150565b5b6040519080825280601f01601f1916602001820160405280156124f95781602001600182028036833780820191505090505b5090505b60008514612586576001826125129190614328565b9150600a8561252191906145a2565b603061252d919061435c565b60f81b818381518110612543576125426140cb565b5b60200101907effffffffffffffffffffffffffffffffffffffffffffffffffffffffffffff1916908160001a905350600a8561257f9190614571565b94506124fd565b8093505050505b919050565b61262e848484846040516024016125ac94939291906145d3565b6040516020818303038152906040527f9fd009f5000000000000000000000000000000000000000000000000000000007bffffffffffffffffffffffffffffffffffffffffffffffffffffffff19166020820180517bffffffffffffffffffffffffffffffffffffffffffffffffffffffff83818316178352505050506129e7565b50505050565b6060600082511415612657576040518060200160405280600081525090506127a8565b60006040518060600160405280604081526020016149066040913990506000600360028551612686919061435c565b6126909190614571565b600461269c919061462d565b905060006020826126ad919061435c565b67ffffffffffffffff8111156126c6576126c5613150565b5b6040519080825280601f01601f1916602001820160405280156126f85781602001600182028036833780820191505090505b509050818152600183018586518101602084015b81831015612767576003830192508251603f8160121c168501518253600182019150603f81600c1c168501518253600182019150603f8160061c168501518253600182019150603f811685015182536001820191505061270c565b60038951066001811461278157600281146127915761279c565b613d3d60f01b600283035261279c565b603d60f81b60018303525b50505050508093505050505b919050565b6127c7828260405180602001604052806000815250612a10565b5050565b6127d482611b75565b612813576040517f08c379a000000000000000000000000000000000000000000000000000000000815260040161280a906146f9565b60405180910390fd5b8060066000848152602001908152602001600020908051906020019061283a929190612cee565b505050565b6001816000016000828254019250508190555050565b505050565b505050565b60006128808473ffffffffffffffffffffffffffffffffffffffff16612a6b565b156129da578373ffffffffffffffffffffffffffffffffffffffff1663150b7a026128a9611be1565b8786866040518563ffffffff1660e01b81526004016128cb949392919061476e565b6020604051808303816000875af192505050801561290757506040513d601f19601f8201168201806040525081019061290491906147cf565b60015b61298a573d8060008114612937576040519150601f19603f3d011682016040523d82523d6000602084013e61293c565b606091505b50600081511415612982576040517f08c379a000000000000000000000000000000000000000000000000000000000815260040161297990614490565b60405180910390fd5b805181602001fd5b63150b7a0260e01b7bffffffffffffffffffffffffffffffffffffffffffffffffffffffff1916817bffffffffffffffffffffffffffffffffffffffffffffffffffffffff1916149150506129df565b600190505b949350505050565b60008151905060006a636f6e736f6c652e6c6f679050602083016000808483855afa5050505050565b612a1a8383612a8e565b612a27600084848461285f565b612a66576040517f08c379a0000000000000000000000000000000000000000000000000000000008152600401612a5d90614490565b60405180910390fd5b505050565b6000808273ffffffffffffffffffffffffffffffffffffffff163b119050919050565b600073ffffffffffffffffffffffffffffffffffffffff168273ffffffffffffffffffffffffffffffffffffffff161415612afe576040517f08c379a0000000000000000000000000000000000000000000000000000000008152600401612af590614848565b60405180910390fd5b612b0781611b75565b15612b47576040517f08c379a0000000000000000000000000000000000000000000000000000000008152600401612b3e906148b4565b60405180910390fd5b612b5360008383612855565b6001600360008473ffffffffffffffffffffffffffffffffffffffff1673ffffffffffffffffffffffffffffffffffffffff1681526020019081526020016000206000828254612ba3919061435c565b92505081905550816002600083815260200190815260200160002060006101000a81548173ffffffffffffffffffffffffffffffffffffffff021916908373ffffffffffffffffffffffffffffffffffffffff160217905550808273ffffffffffffffffffffffffffffffffffffffff16600073ffffffffffffffffffffffffffffffffffffffff167fddf252ad1be2c89b69c2b068fc378daa952ba7f163c4a11628f55a4df523b3ef60405160405180910390a4612c646000838361285a565b5050565b828054612c7490613705565b90600052602060002090601f016020900481019282612c965760008555612cdd565b82601f10612caf57803560ff1916838001178555612cdd565b82800160010185558215612cdd579182015b82811115612cdc578235825591602001919060010190612cc1565b5b509050612cea9190612d74565b5090565b828054612cfa90613705565b90600052602060002090601f016020900481019282612d1c5760008555612d63565b82601f10612d3557805160ff1916838001178555612d63565b82800160010185558215612d63579182015b82811115612d62578251825591602001919060010190612d47565b5b509050612d709190612d74565b5090565b5b80821115612d8d576000816000905550600101612d75565b5090565b6000604051905090565b600080fd5b600080fd5b60007fffffffff0000000000000000000000000000000000000000000000000000000082169050919050565b612dda81612da5565b8114612de557600080fd5b50565b600081359050612df781612dd1565b92915050565b600060208284031215612e1357612e12612d9b565b5b6000612e2184828501612de8565b91505092915050565b60008115159050919050565b612e3f81612e2a565b82525050565b6000602082019050612e5a6000830184612e36565b92915050565b600081519050919050565b600082825260208201905092915050565b60005b83811015612e9a578082015181840152602081019050612e7f565b83811115612ea9576000848401525b50505050565b6000601f19601f8301169050919050565b6000612ecb82612e60565b612ed58185612e6b565b9350612ee5818560208601612e7c565b612eee81612eaf565b840191505092915050565b60006020820190508181036000830152612f138184612ec0565b905092915050565b6000819050919050565b612f2e81612f1b565b8114612f3957600080fd5b50565b600081359050612f4b81612f25565b92915050565b600060208284031215612f6757612f66612d9b565b5b6000612f7584828501612f3c565b91505092915050565b600073ffffffffffffffffffffffffffffffffffffffff82169050919050565b6000612fa982612f7e565b9050919050565b612fb981612f9e565b82525050565b6000602082019050612fd46000830184612fb0565b92915050565b612fe381612f9e565b8114612fee57600080fd5b50565b60008135905061300081612fda565b92915050565b6000806040838503121561301d5761301c612d9b565b5b600061302b85828601612ff1565b925050602061303c85828601612f3c565b9150509250929050565b600080fd5b600080fd5b600080fd5b60008083601f84011261306b5761306a613046565b5b8235905067ffffffffffffffff8111156130885761308761304b565b5b6020830191508360018202830111156130a4576130a3613050565b5b9250929050565b600080602083850312156130c2576130c1612d9b565b5b600083013567ffffffffffffffff8111156130e0576130df612da0565b5b6130ec85828601613055565b92509250509250929050565b60008060006060848603121561311157613110612d9b565b5b600061311f86828701612ff1565b935050602061313086828701612ff1565b925050604061314186828701612f3c565b9150509250925092565b600080fd5b7f4e487b7100000000000000000000000000000000000000000000000000000000600052604160045260246000fd5b61318882612eaf565b810181811067ffffffffffffffff821117156131a7576131a6613150565b5b80604052505050565b60006131ba612d91565b90506131c6828261317f565b919050565b600067ffffffffffffffff8211156131e6576131e5613150565b5b6131ef82612eaf565b9050602081019050919050565b82818337600083830152505050565b600061321e613219846131cb565b6131b0565b90508281526020810184848401111561323a5761323961314b565b5b6132458482856131fc565b509392505050565b600082601f83011261326257613261613046565b5b813561327284826020860161320b565b91505092915050565b60006020828403121561329157613290612d9b565b5b600082013567ffffffffffffffff8111156132af576132ae612da0565b5b6132bb8482850161324d565b91505092915050565b6000602082840312156132da576132d9612d9b565b5b60006132e884828501612ff1565b91505092915050565b6132fa81612f1b565b82525050565b600060208201905061331560008301846132f1565b92915050565b600061332682612f7e565b9050919050565b6133368161331b565b82525050565b6000602082019050613351600083018461332d565b92915050565b61336081612e2a565b811461336b57600080fd5b50565b60008135905061337d81613357565b92915050565b6000806040838503121561339a57613399612d9b565b5b60006133a885828601612ff1565b92505060206133b98582860161336e565b9150509250929050565b600067ffffffffffffffff8211156133de576133dd613150565b5b6133e782612eaf565b9050602081019050919050565b6000613407613402846133c3565b6131b0565b9050828152602081018484840111156134235761342261314b565b5b61342e8482856131fc565b509392505050565b600082601f83011261344b5761344a613046565b5b813561345b8482602086016133f4565b91505092915050565b6000806000806080858703121561347e5761347d612d9b565b5b600061348c87828801612ff1565b945050602061349d87828801612ff1565b93505060406134ae87828801612f3c565b925050606085013567ffffffffffffffff8111156134cf576134ce612da0565b5b6134db87828801613436565b91505092959194509250565b6000806000806040858703121561350157613500612d9b565b5b600085013567ffffffffffffffff81111561351f5761351e612da0565b5b61352b87828801613055565b9450945050602085013567ffffffffffffffff81111561354e5761354d612da0565b5b61355a87828801613055565b925092505092959194509250565b6000806040838503121561357f5761357e612d9b565b5b600061358d85828601612ff1565b925050602061359e85828601612ff1565b9150509250929050565b600081519050919050565b600082825260208201905092915050565b6000819050602082019050919050565b600082825260208201905092915050565b60006135f082612e60565b6135fa81856135d4565b935061360a818560208601612e7c565b61361381612eaf565b840191505092915050565b600061362a83836135e5565b905092915050565b6000602082019050919050565b600061364a826135a8565b61365481856135b3565b935083602082028501613666856135c4565b8060005b858110156136a25784840389528151613683858261361e565b945061368e83613632565b925060208a0199505060018101905061366a565b50829750879550505050505092915050565b600060208201905081810360008301526136ce818461363f565b905092915050565b7f4e487b7100000000000000000000000000000000000000000000000000000000600052602260045260246000fd5b6000600282049050600182168061371d57607f821691505b60208210811415613731576137306136d6565b5b50919050565b7f4552433732313a20617070726f76656420717565727920666f72206e6f6e657860008201527f697374656e7420746f6b656e0000000000000000000000000000000000000000602082015250565b6000613793602c83612e6b565b915061379e82613737565b604082019050919050565b600060208201905081810360008301526137c281613786565b9050919050565b7f4552433732313a20617070726f76616c20746f2063757272656e74206f776e6560008201527f7200000000000000000000000000000000000000000000000000000000000000602082015250565b6000613825602183612e6b565b9150613830826137c9565b604082019050919050565b6000602082019050818103600083015261385481613818565b9050919050565b7f4552433732313a20617070726f76652063616c6c6572206973206e6f74206f7760008201527f6e6572206e6f7220617070726f76656420666f7220616c6c0000000000000000602082015250565b60006138b7603883612e6b565b91506138c28261385b565b604082019050919050565b600060208201905081810360008301526138e6816138aa565b9050919050565b600081905092915050565b600061390483856138ed565b93506139118385846131fc565b82840190509392505050565b600061392a8284866138f8565b91508190509392505050565b7f4552433732313a207472616e736665722063616c6c6572206973206e6f74206f60008201527f776e6572206e6f7220617070726f766564000000000000000000000000000000602082015250565b6000613992603183612e6b565b915061399d82613936565b604082019050919050565b600060208201905081810360008301526139c181613985565b9050919050565b600081905092915050565b50565b60006139e36000836139c8565b91506139ee826139d3565b600082019050919050565b6000613a04826139d6565b9150819050919050565b7f4661696c656420746f207769746864726177204d617469630000000000000000600082015250565b6000613a44601883612e6b565b9150613a4f82613a0e565b602082019050919050565b60006020820190508181036000830152613a7381613a37565b9050919050565b7f4552433732313a206f776e657220717565727920666f72206e6f6e657869737460008201527f656e7420746f6b656e0000000000000000000000000000000000000000000000602082015250565b6000613ad6602983612e6b565b9150613ae182613a7a565b604082019050919050565b60006020820190508181036000830152613b0581613ac9565b9050919050565b7f4552433732313a2062616c616e636520717565727920666f7220746865207a6560008201527f726f206164647265737300000000000000000000000000000000000000000000602082015250565b6000613b68602a83612e6b565b9150613b7382613b0c565b604082019050919050565b60006020820190508181036000830152613b9781613b5b565b9050919050565b7f45524337323155524953746f726167653a2055524920717565727920666f722060008201527f6e6f6e6578697374656e7420746f6b656e000000000000000000000000000000602082015250565b6000613bfa603183612e6b565b9150613c0582613b9e565b604082019050919050565b60006020820190508181036000830152613c2981613bed565b9050919050565b6000613c3b82612e60565b613c4581856138ed565b9350613c55818560208601612e7c565b80840191505092915050565b6000613c6d8285613c30565b9150613c798284613c30565b91508190509392505050565b6000613c918385612e6b565b9350613c9e8385846131fc565b613ca783612eaf565b840190509392505050565b60006020820190508181036000830152613ccd818486613c85565b90509392505050565b7f4e6f7420656e6f756768204d6174696320706169640000000000000000000000600082015250565b6000613d0c601583612e6b565b9150613d1782613cd6565b602082019050919050565b60006020820190508181036000830152613d3b81613cff565b9050919050565b7f2e00000000000000000000000000000000000000000000000000000000000000600082015250565b6000613d786001836138ed565b9150613d8382613d42565b600182019050919050565b60008190508160005260206000209050919050565b60008154613db081613705565b613dba81866138ed565b94506001821660008114613dd55760018114613de657613e19565b60ff19831686528186019350613e19565b613def85613d8e565b60005b83811015613e1157815481890152600182019150602081019050613df2565b838801955050505b50505092915050565b6000613e2f8285876138f8565b9150613e3a82613d6b565b9150613e468284613da3565b9150819050949350505050565b6000613e5f8286613da3565b9150613e6b8285613c30565b9150613e778284613da3565b9150819050949350505050565b7f7b226e616d65223a202200000000000000000000000000000000000000000000600082015250565b6000613eba600a836138ed565b9150613ec582613e84565b600a82019050919050565b7f222c20226465736372697074696f6e223a20224120646f6d61696e206f6e207460008201527f68652044616d6e204e616d652053657276696365222c2022696d616765223a2060208201527f22646174613a696d6167652f7376672b786d6c3b6261736536342c0000000000604082015250565b6000613f52605b836138ed565b9150613f5d82613ed0565b605b82019050919050565b7f222c226c656e677468223a220000000000000000000000000000000000000000600082015250565b6000613f9e600c836138ed565b9150613fa982613f68565b600c82019050919050565b7f227d000000000000000000000000000000000000000000000000000000000000600082015250565b6000613fea6002836138ed565b9150613ff582613fb4565b600282019050919050565b600061400b82613ead565b91506140178286613c30565b915061402282613f45565b915061402e8285613c30565b915061403982613f91565b91506140458284613c30565b915061405082613fdd565b9150819050949350505050565b7f646174613a6170706c69636174696f6e2f6a736f6e3b6261736536342c000000600082015250565b6000614093601d836138ed565b915061409e8261405d565b601d82019050919050565b60006140b482614086565b91506140c08284613c30565b915081905092915050565b7f4e487b7100000000000000000000000000000000000000000000000000000000600052603260045260246000fd5b7f4e487b7100000000000000000000000000000000000000000000000000000000600052601160045260246000fd5b600061413482612f1b565b91507fffffffffffffffffffffffffffffffffffffffffffffffffffffffffffffffff821415614167576141666140fa565b5b600182019050919050565b7f4552433732313a206f70657261746f7220717565727920666f72206e6f6e657860008201527f697374656e7420746f6b656e0000000000000000000000000000000000000000602082015250565b60006141ce602c83612e6b565b91506141d982614172565b604082019050919050565b600060208201905081810360008301526141fd816141c1565b9050919050565b7f4552433732313a207472616e736665722066726f6d20696e636f72726563742060008201527f6f776e6572000000000000000000000000000000000000000000000000000000602082015250565b6000614260602583612e6b565b915061426b82614204565b604082019050919050565b6000602082019050818103600083015261428f81614253565b9050919050565b7f4552433732313a207472616e7366657220746f20746865207a65726f2061646460008201527f7265737300000000000000000000000000000000000000000000000000000000602082015250565b60006142f2602483612e6b565b91506142fd82614296565b604082019050919050565b60006020820190508181036000830152614321816142e5565b9050919050565b600061433382612f1b565b915061433e83612f1b565b925082821015614351576143506140fa565b5b828203905092915050565b600061436782612f1b565b915061437283612f1b565b9250827fffffffffffffffffffffffffffffffffffffffffffffffffffffffffffffffff038211156143a7576143a66140fa565b5b828201905092915050565b7f4552433732313a20617070726f766520746f2063616c6c657200000000000000600082015250565b60006143e8601983612e6b565b91506143f3826143b2565b602082019050919050565b60006020820190508181036000830152614417816143db565b9050919050565b7f4552433732313a207472616e7366657220746f206e6f6e20455243373231526560008201527f63656976657220696d706c656d656e7465720000000000000000000000000000602082015250565b600061447a603283612e6b565b91506144858261441e565b604082019050919050565b600060208201905081810360008301526144a98161446d565b9050919050565b7f4552433732314d657461646174613a2055524920717565727920666f72206e6f60008201527f6e6578697374656e7420746f6b656e0000000000000000000000000000000000602082015250565b600061450c602f83612e6b565b9150614517826144b0565b604082019050919050565b6000602082019050818103600083015261453b816144ff565b9050919050565b7f4e487b7100000000000000000000000000000000000000000000000000000000600052601260045260246000fd5b600061457c82612f1b565b915061458783612f1b565b92508261459757614596614542565b5b828204905092915050565b60006145ad82612f1b565b91506145b883612f1b565b9250826145c8576145c7614542565b5b828206905092915050565b600060808201905081810360008301526145ed8187612ec0565b905081810360208301526146018186612ec0565b905081810360408301526146158185612ec0565b905061462460608301846132f1565b95945050505050565b600061463882612f1b565b915061464383612f1b565b9250817fffffffffffffffffffffffffffffffffffffffffffffffffffffffffffffffff048311821515161561467c5761467b6140fa565b5b828202905092915050565b7f45524337323155524953746f726167653a2055524920736574206f66206e6f6e60008201527f6578697374656e7420746f6b656e000000000000000000000000000000000000602082015250565b60006146e3602e83612e6b565b91506146ee82614687565b604082019050919050565b60006020820190508181036000830152614712816146d6565b9050919050565b600081519050919050565b600082825260208201905092915050565b600061474082614719565b61474a8185614724565b935061475a818560208601612e7c565b61476381612eaf565b840191505092915050565b60006080820190506147836000830187612fb0565b6147906020830186612fb0565b61479d60408301856132f1565b81810360608301526147af8184614735565b905095945050505050565b6000815190506147c981612dd1565b92915050565b6000602082840312156147e5576147e4612d9b565b5b60006147f3848285016147ba565b91505092915050565b7f4552433732313a206d696e7420746f20746865207a65726f2061646472657373600082015250565b6000614832602083612e6b565b915061483d826147fc565b602082019050919050565b6000602082019050818103600083015261486181614825565b9050919050565b7f4552433732313a20746f6b656e20616c7265616479206d696e74656400000000600082015250565b600061489e601c83612e6b565b91506148a982614868565b602082019050919050565b600060208201905081810360008301526148cd81614891565b905091905056fe5265676973746572696e672025732e2573206f6e2074686520636f6e7472616374207769746820746f6b656e49442025644142434445464748494a4b4c4d4e4f505152535455565758595a6162636465666768696a6b6c6d6e6f707172737475767778797a303132333435363738392b2fa2646970667358221220416b62b7b4020ca2898b25bf171b1c8c3491012ed1d8b761ab985532246282be64736f6c634300080a00333c73766720786d6c6e733d22687474703a2f2f7777772e77332e6f72672f323030302f737667222077696474683d2232373022206865696768743d22323730222066696c6c3d226e6f6e65223e3c706174682066696c6c3d2275726c282361292220643d224d302030683237307632373048307a222f3e3c646566733e3c66696c7465722069643d22622220636f6c6f722d696e746572706f6c6174696f6e2d66696c746572733d2273524742222066696c746572556e6974733d227573657253706163654f6e55736522206865696768743d22323730222077696474683d22323730223e3c666544726f70536861646f772064783d2230222064793d22312220737464446576696174696f6e3d22322220666c6f6f642d6f7061636974793d222e323235222077696474683d223230302522206865696768743d2232303025222f3e3c2f66696c7465723e3c2f646566733e3c70617468207374796c653d2266696c6c3a236536346333632220643d224d342e3634352034352e3537376132352e3938362032352e3938362030203020312d2e3032392d312e31353463302d31332e3939372031312e3338372d32352e3338352032352e3338352d32352e3338357332352e3338352031312e3338372032352e3338352032352e3338356330202e3338372d2e3031322e3737312d2e30323920312e31353468342e363136632e3031322d2e3338342e3032372d2e3736372e3032372d312e31353420302d31362e3536392d31332e3433312d33302d33302d3330732d33302031332e3433312d33302033306330202e3338372e3031352e37372e30323920312e31353468342e3631367a222f3e3c70617468207374796c653d2266696c6c3a236630633431392220643d224d392e3238392034352e353737632d2e3032312d2e3338342d2e3035382d2e3736342d2e3035382d312e31353420302d31312e34353220392e3331372d32302e3736392032302e3736392d32302e3736397332302e37363920392e3331382032302e3736392032302e3736396330202e3338392d2e3033372e37372d2e30353820312e31353468342e363435632e3031372d2e3338332e3032392d2e3736372e3032392d312e31353420302d31332e3939372d31312e3338372d32352e3338352d32352e3338352d32352e33383553342e3631352033302e34323620342e3631352034342e3432336330202e3338372e3031322e3737312e30323920312e31353468342e3634357a222f3e3c70617468207374796c653d2266696c6c3a233731633238352220643d224d31332e3930352034352e353737632d2e3032372d2e3338332d2e3035382d2e3736342d2e3035382d312e31353420302d382e39303720372e3234362d31362e3135342031362e3135342d31362e3135347331362e31353420372e3234362031362e3135342031362e3135346330202e3338392d2e3033312e3737312d2e30353820312e31353468342e363135632e3032312d2e3338342e3035382d2e3736342e3035382d312e31353420302d31312e3435322d392e3331372d32302e3736392d32302e3736392d32302e373639732d32302e373720392e3331372d32302e37372032302e3736396330202e3338392e3033372e37372e30353820312e31353468342e3631367a222f3e3c70617468207374796c653d2266696c6c3a233030393665362220643d224d31382e35322034352e3537376131312e35382031312e35382030203020312d2e3035382d312e31353463302d362e33363220352e3137362d31312e3533382031312e3533382d31312e3533387331312e35333820352e3137372031312e3533382031312e3533386330202e3338392d2e3032312e3737342d2e30353820312e31353468342e363135632e3032372d2e3338332e3035382d2e3736342e3035382d312e31353420302d382e3930372d372e3234362d31362e3135342d31362e3135342d31362e313534732d31362e31353420372e3234362d31362e3135342031362e3135346330202e3338392e3033312e3737312e30353820312e31353468342e3631377a222f3e3c70617468207374796c653d2266696c6c3a233534366137392220643d224d32332e3138312034352e35373761362e38353920362e3835392030203020312d2e3130342d312e31353463302d332e38313820332e3130352d362e39323320362e3932332d362e39323373362e39323320332e31303520362e39323320362e3932336330202e3339342d2e3034312e3737382d2e31303420312e31353468342e363631632e3033382d2e33382e3035382d2e3736342e3035382d312e31353420302d362e3336322d352e3137362d31312e3533382d31312e3533382d31312e353338732d31312e35333820352e3137372d31312e3533382031312e3533386330202e3338392e3032312e3737342e30353820312e31353468342e3636317a222f3e3c646566733e3c6c696e6561724772616469656e742069643d2261222078313d2230222079313d2230222078323d22323730222079323d2232373022206772616469656e74556e6974733d227573657253706163654f6e557365223e3c73746f702073746f702d636f6c6f723d2223636235656565222f3e3c73746f70206f66667365743d2231222073746f702d636f6c6f723d2223306364376534222073746f702d6f7061636974793d222e3939222f3e3c2f6c696e6561724772616469656e743e3c2f646566733e3c7465787420783d2233322e352220793d223233312220666f6e742d73697a653d223237222066696c6c3d2223666666222066696c7465723d2275726c282362292220666f6e742d66616d696c793d22506c7573204a616b617274612053616e732c44656a6156752053616e732c4e6f746f20436f6c6f7220456d6f6a692c4170706c6520436f6c6f7220456d6f6a692c73616e732d73657269662220666f6e742d7765696768743d22626f6c64223e",
    "linkReferences": {},
    "deployedLinkReferences": {}
}